{
  "_format": "hh-sol-artifact-1",
  "contractName": "ERC6551Account",
  "sourceName": "contracts/ERC6551Account.sol",
  "abi": [
    {
      "inputs": [],
      "stateMutability": "nonpayable",
      "type": "constructor"
    },
    {
      "inputs": [
        {
          "internalType": "address",
          "name": "router",
          "type": "address"
        }
      ],
      "name": "InvalidRouter",
      "type": "error"
    },
    {
      "anonymous": false,
      "inputs": [],
      "name": "CreateAccountCallSuccessfull",
      "type": "event"
    },
    {
      "anonymous": false,
      "inputs": [
        {
          "indexed": false,
          "internalType": "bytes32",
          "name": "messageId",
          "type": "bytes32"
        }
      ],
      "name": "MessageSent",
      "type": "event"
    },
    {
      "anonymous": false,
      "inputs": [
        {
          "indexed": true,
          "internalType": "address",
          "name": "target",
          "type": "address"
        },
        {
          "indexed": true,
          "internalType": "uint256",
          "name": "value",
          "type": "uint256"
        },
        {
          "indexed": false,
          "internalType": "bytes",
          "name": "data",
          "type": "bytes"
        }
      ],
      "name": "TransactionExecuted",
      "type": "event"
    },
    {
      "inputs": [
        {
          "internalType": "address",
          "name": "_token",
          "type": "address"
        },
        {
          "internalType": "address",
          "name": "_dataFeed",
          "type": "address"
        }
      ],
      "name": "addToken",
      "outputs": [],
      "stateMutability": "nonpayable",
      "type": "function"
    },
    {
      "inputs": [
        {
          "internalType": "uint64",
          "name": "destinationChainSelector",
          "type": "uint64"
        },
        {
          "internalType": "address",
          "name": "routeAddress",
          "type": "address"
        },
        {
          "internalType": "address",
          "name": "to",
          "type": "address"
        },
        {
          "internalType": "uint256",
          "name": "value",
          "type": "uint256"
        },
        {
          "internalType": "uint256",
          "name": "chainId",
          "type": "uint256"
        },
        {
          "internalType": "bytes",
          "name": "data",
          "type": "bytes"
        }
      ],
      "name": "caculateFee",
      "outputs": [
        {
          "internalType": "uint256",
          "name": "",
          "type": "uint256"
        }
      ],
      "stateMutability": "view",
      "type": "function"
    },
    {
      "inputs": [
        {
          "components": [
            {
              "internalType": "bytes32",
              "name": "messageId",
              "type": "bytes32"
            },
            {
              "internalType": "uint64",
              "name": "sourceChainSelector",
              "type": "uint64"
            },
            {
              "internalType": "bytes",
              "name": "sender",
              "type": "bytes"
            },
            {
              "internalType": "bytes",
              "name": "data",
              "type": "bytes"
            },
            {
              "components": [
                {
                  "internalType": "address",
                  "name": "token",
                  "type": "address"
                },
                {
                  "internalType": "uint256",
                  "name": "amount",
                  "type": "uint256"
                }
              ],
              "internalType": "struct Client.EVMTokenAmount[]",
              "name": "destTokenAmounts",
              "type": "tuple[]"
            }
          ],
          "internalType": "struct Client.Any2EVMMessage",
          "name": "message",
          "type": "tuple"
        }
      ],
      "name": "ccipReceive",
      "outputs": [],
      "stateMutability": "nonpayable",
      "type": "function"
    },
    {
      "inputs": [
        {
          "internalType": "address",
          "name": "",
          "type": "address"
        }
      ],
      "name": "dataFeedAddress",
      "outputs": [
        {
          "internalType": "address",
          "name": "",
          "type": "address"
        }
      ],
      "stateMutability": "view",
      "type": "function"
    },
    {
      "inputs": [],
      "name": "desAddress",
      "outputs": [
        {
          "internalType": "address",
          "name": "",
          "type": "address"
        }
      ],
      "stateMutability": "view",
      "type": "function"
    },
    {
      "inputs": [
        {
          "internalType": "address",
          "name": "to",
          "type": "address"
        },
        {
          "internalType": "uint256",
          "name": "value",
          "type": "uint256"
        },
        {
          "internalType": "uint256",
          "name": "chainId",
          "type": "uint256"
        },
        {
          "internalType": "bytes",
          "name": "data",
          "type": "bytes"
        }
      ],
      "name": "executeCall",
      "outputs": [
        {
          "internalType": "bytes",
          "name": "result",
          "type": "bytes"
        }
      ],
      "stateMutability": "payable",
      "type": "function"
    },
    {
      "inputs": [],
      "name": "getAllToken",
      "outputs": [
        {
          "internalType": "address[]",
          "name": "",
          "type": "address[]"
        }
      ],
      "stateMutability": "view",
      "type": "function"
    },
    {
      "inputs": [
        {
          "internalType": "address",
          "name": "_token",
          "type": "address"
        }
      ],
      "name": "getChainlinkDataFeedLatestAnswer",
      "outputs": [
        {
          "internalType": "int256",
          "name": "",
          "type": "int256"
        }
      ],
      "stateMutability": "view",
      "type": "function"
    },
    {
      "inputs": [],
      "name": "getRouter",
      "outputs": [
        {
          "internalType": "address",
          "name": "",
          "type": "address"
        }
      ],
      "stateMutability": "view",
      "type": "function"
    },
    {
      "inputs": [],
      "name": "getTokenArrayLength",
      "outputs": [
        {
          "internalType": "uint256",
          "name": "",
          "type": "uint256"
        }
      ],
      "stateMutability": "view",
      "type": "function"
    },
    {
      "inputs": [
        {
          "internalType": "uint256",
          "name": "index",
          "type": "uint256"
        }
      ],
      "name": "getTokenAtIndex",
      "outputs": [
        {
          "internalType": "address",
          "name": "",
          "type": "address"
        }
      ],
      "stateMutability": "view",
      "type": "function"
    },
    {
      "inputs": [
        {
          "internalType": "bytes32",
          "name": "hash",
          "type": "bytes32"
        },
        {
          "internalType": "bytes",
          "name": "signature",
          "type": "bytes"
        }
      ],
      "name": "isValidSignature",
      "outputs": [
        {
          "internalType": "bytes4",
          "name": "magicValue",
          "type": "bytes4"
        }
      ],
      "stateMutability": "view",
      "type": "function"
    },
    {
      "inputs": [],
      "name": "nonce",
      "outputs": [
        {
          "internalType": "uint256",
          "name": "",
          "type": "uint256"
        }
      ],
      "stateMutability": "view",
      "type": "function"
    },
    {
      "inputs": [],
      "name": "owner",
      "outputs": [
        {
          "internalType": "address",
          "name": "",
          "type": "address"
        }
      ],
      "stateMutability": "view",
      "type": "function"
    },
    {
      "inputs": [
        {
          "internalType": "address",
          "name": "_token",
          "type": "address"
        }
      ],
      "name": "removeAddress",
      "outputs": [],
      "stateMutability": "nonpayable",
      "type": "function"
    },
    {
      "inputs": [
        {
          "internalType": "address",
          "name": "_desAddress",
          "type": "address"
        }
      ],
      "name": "setDesAddress",
      "outputs": [],
      "stateMutability": "nonpayable",
      "type": "function"
    },
    {
      "inputs": [
        {
          "internalType": "address",
          "name": "_sourceAddress",
          "type": "address"
        }
      ],
      "name": "setSourceAddress",
      "outputs": [],
      "stateMutability": "nonpayable",
      "type": "function"
    },
    {
      "inputs": [],
      "name": "sourceAddress",
      "outputs": [
        {
          "internalType": "address",
          "name": "",
          "type": "address"
        }
      ],
      "stateMutability": "view",
      "type": "function"
    },
    {
      "inputs": [
        {
          "internalType": "bytes4",
          "name": "interfaceId",
          "type": "bytes4"
        }
      ],
      "name": "supportsInterface",
      "outputs": [
        {
          "internalType": "bool",
          "name": "",
          "type": "bool"
        }
      ],
      "stateMutability": "pure",
      "type": "function"
    },
    {
      "inputs": [],
      "name": "token",
      "outputs": [
        {
          "internalType": "uint256",
          "name": "",
          "type": "uint256"
        },
        {
          "internalType": "address",
          "name": "",
          "type": "address"
        },
        {
          "internalType": "uint256",
          "name": "",
          "type": "uint256"
        }
      ],
      "stateMutability": "view",
      "type": "function"
    },
    {
      "inputs": [
        {
          "internalType": "uint256",
          "name": "",
          "type": "uint256"
        }
      ],
      "name": "tokenArray",
      "outputs": [
        {
          "internalType": "address",
          "name": "",
          "type": "address"
        }
      ],
      "stateMutability": "view",
      "type": "function"
    },
    {
      "stateMutability": "payable",
      "type": "receive"
    }
  ],
  "bytecode": "0x60a06040523480156200001157600080fd5b5073554472a2720e5e7d5d3c817529aba05eed5f82d8600073ffffffffffffffffffffffffffffffffffffffff168173ffffffffffffffffffffffffffffffffffffffff16036200009c5760006040517fd7f733340000000000000000000000000000000000000000000000000000000081526004016200009391906200011c565b60405180910390fd5b8073ffffffffffffffffffffffffffffffffffffffff1660808173ffffffffffffffffffffffffffffffffffffffff16815250505062000139565b600073ffffffffffffffffffffffffffffffffffffffff82169050919050565b60006200010482620000d7565b9050919050565b6200011681620000f7565b82525050565b60006020820190506200013360008301846200010b565b92915050565b608051612e716200015c60003960008181610b5001526111c30152612e716000f3fe60806040526004361061012e5760003560e01c806397988dce116100ab578063b15345ab1161006f578063b15345ab14610404578063cc8048d41461042f578063d6b643c81461046c578063e7078f9214610495578063faa32f5d146104d2578063fc0c546a1461050f57610135565b806397988dce14610309578063a8320b1b14610346578063affed0e014610383578063b0f479a1146103ae578063b0fa8444146103d957610135565b80635476bd72116100f25780635476bd721461023157806385572ffb1461025a57806385e3c1d4146102835780638ba7e570146102ae5780638da5cb5b146102de57610135565b806301ffc9a71461013a5780631626ba7e14610177578063385765e1146101b457806345facd8e146101df5780634ba79dfe1461020857610135565b3661013557005b600080fd5b34801561014657600080fd5b50610161600480360381019061015c9190611acc565b61053c565b60405161016e9190611b14565b60405180910390f35b34801561018357600080fd5b5061019e60048036038101906101999190611cab565b610676565b6040516101ab9190611d16565b60405180910390f35b3480156101c057600080fd5b506101c96106af565b6040516101d69190611d72565b60405180910390f35b3480156101eb57600080fd5b5061020660048036038101906102019190611db9565b6106d5565b005b34801561021457600080fd5b5061022f600480360381019061022a9190611db9565b610774565b005b34801561023d57600080fd5b5061025860048036038101906102539190611de6565b6109f5565b005b34801561026657600080fd5b50610281600480360381019061027c9190611e4a565b610b4e565b005b34801561028f57600080fd5b50610298610bf3565b6040516102a59190611f51565b60405180910390f35b6102c860048036038101906102c39190612009565b610c81565b6040516102d59190612110565b60405180910390f35b3480156102ea57600080fd5b506102f3610ffd565b6040516103009190611d72565b60405180910390f35b34801561031557600080fd5b50610330600480360381019061032b9190612132565b6110f7565b60405161033d9190611d72565b60405180910390f35b34801561035257600080fd5b5061036d60048036038101906103689190611db9565b611186565b60405161037a9190611d72565b60405180910390f35b34801561038f57600080fd5b506103986111b9565b6040516103a5919061216e565b60405180910390f35b3480156103ba57600080fd5b506103c36111bf565b6040516103d09190611d72565b60405180910390f35b3480156103e557600080fd5b506103ee6111e7565b6040516103fb9190611d72565b60405180910390f35b34801561041057600080fd5b5061041961120d565b604051610426919061216e565b60405180910390f35b34801561043b57600080fd5b50610456600480360381019061045191906121c9565b61121a565b604051610463919061216e565b60405180910390f35b34801561047857600080fd5b50610493600480360381019061048e9190611db9565b611426565b005b3480156104a157600080fd5b506104bc60048036038101906104b79190611db9565b6114c5565b6040516104c99190612291565b60405180910390f35b3480156104de57600080fd5b506104f960048036038101906104f49190612132565b6115aa565b6040516105069190611d72565b60405180910390f35b34801561051b57600080fd5b506105246115e9565b604051610533939291906122ac565b60405180910390f35b60007f01ffc9a7000000000000000000000000000000000000000000000000000000007bffffffffffffffffffffffffffffffffffffffffffffffffffffffff1916827bffffffffffffffffffffffffffffffffffffffffffffffffffffffff1916148061060757507f55f0aaa1000000000000000000000000000000000000000000000000000000007bffffffffffffffffffffffffffffffffffffffffffffffffffffffff1916827bffffffffffffffffffffffffffffffffffffffffffffffffffffffff1916145b8061066f57507f85572ffb000000000000000000000000000000000000000000000000000000007bffffffffffffffffffffffffffffffffffffffffffffffffffffffff1916827bffffffffffffffffffffffffffffffffffffffffffffffffffffffff1916145b9050919050565b60008061068b610684610ffd565b8585611601565b905080156106a357631626ba7e60e01b9150506106a9565b60009150505b92915050565b600460009054906101000a900473ffffffffffffffffffffffffffffffffffffffff1681565b60006002541461071a576040517f08c379a000000000000000000000000000000000000000000000000000000000815260040161071190612340565b60405180910390fd5b80600360006101000a81548173ffffffffffffffffffffffffffffffffffffffff021916908373ffffffffffffffffffffffffffffffffffffffff16021790555060026000815461076a9061238f565b9190508190555050565b61077c610ffd565b73ffffffffffffffffffffffffffffffffffffffff163373ffffffffffffffffffffffffffffffffffffffff16146107e9576040517f08c379a00000000000000000000000000000000000000000000000000000000081526004016107e090612423565b60405180910390fd5b60008060008373ffffffffffffffffffffffffffffffffffffffff1673ffffffffffffffffffffffffffffffffffffffff16815260200190815260200160002060006101000a81548173ffffffffffffffffffffffffffffffffffffffff021916908373ffffffffffffffffffffffffffffffffffffffff16021790555060005b6001805490508110156109f1578173ffffffffffffffffffffffffffffffffffffffff16600182815481106108a2576108a1612443565b5b9060005260206000200160009054906101000a900473ffffffffffffffffffffffffffffffffffffffff1673ffffffffffffffffffffffffffffffffffffffff16036109de5760018080805490506108fa9190612472565b8154811061090b5761090a612443565b5b9060005260206000200160009054906101000a900473ffffffffffffffffffffffffffffffffffffffff166001828154811061094a57610949612443565b5b9060005260206000200160006101000a81548173ffffffffffffffffffffffffffffffffffffffff021916908373ffffffffffffffffffffffffffffffffffffffff16021790555060018054806109a4576109a36124a6565b5b6001900381819060005260206000200160006101000a81549073ffffffffffffffffffffffffffffffffffffffff021916905590556109f1565b80806109e99061238f565b91505061086a565b5050565b6109fd610ffd565b73ffffffffffffffffffffffffffffffffffffffff163373ffffffffffffffffffffffffffffffffffffffff1614610a6a576040517f08c379a0000000000000000000000000000000000000000000000000000000008152600401610a6190612423565b60405180910390fd5b6001829080600181540180825580915050600190039060005260206000200160009091909190916101000a81548173ffffffffffffffffffffffffffffffffffffffff021916908373ffffffffffffffffffffffffffffffffffffffff160217905550806000808473ffffffffffffffffffffffffffffffffffffffff1673ffffffffffffffffffffffffffffffffffffffff16815260200190815260200160002060006101000a81548173ffffffffffffffffffffffffffffffffffffffff021916908373ffffffffffffffffffffffffffffffffffffffff1602179055505050565b7f000000000000000000000000000000000000000000000000000000000000000073ffffffffffffffffffffffffffffffffffffffff163373ffffffffffffffffffffffffffffffffffffffff1614610bde57336040517fd7f73334000000000000000000000000000000000000000000000000000000008152600401610bd59190611d72565b60405180910390fd5b610bf081610beb906126d2565b611691565b50565b60606001805480602002602001604051908101604052809291908181526020018280548015610c7757602002820191906000526020600020905b8160009054906101000a900473ffffffffffffffffffffffffffffffffffffffff1673ffffffffffffffffffffffffffffffffffffffff1681526020019060010190808311610c2d575b5050505050905090565b6060600260008154610c929061238f565b91905081905550834614610f1f576000806040518060a00160405280600460009054906101000a900473ffffffffffffffffffffffffffffffffffffffff16604051602001610ce19190611d72565b60405160208183030381529060405281526020018989898989604051602401610d0e959493929190612712565b6040516020818303038152906040527f8ba7e570000000000000000000000000000000000000000000000000000000007bffffffffffffffffffffffffffffffffffffffffffffffffffffffff19166020820180517bffffffffffffffffffffffffffffffffffffffffffffffffffffffff83818316178352505050508152602001600067ffffffffffffffff811115610dab57610daa611b80565b5b604051908082528060200260200182016040528015610de457816020015b610dd1611a30565b815260200190600190039081610dc95790505b508152602001600073ffffffffffffffffffffffffffffffffffffffff168152602001604051806020016040528060008152508152509050600067ccf0a31a221f3c9b905073d0daae2231e9cb96b94c8512223533293c3693bf73ffffffffffffffffffffffffffffffffffffffff166396f4e9f93483856040518463ffffffff1660e01b8152600401610e79929190612931565b60206040518083038185885af1158015610e97573d6000803e3d6000fd5b50505050506040513d601f19601f82011682018060405250810190610ebc9190612976565b92507f54791b38f3859327992a1ca0590ad3c0f08feba98d1a4f56ab0dca74d203392a83604051610eed91906129b2565b60405180910390a182604051602001610f0691906129ee565b6040516020818303038152906040529350505050610ff4565b848673ffffffffffffffffffffffffffffffffffffffff167f47d99ad340f52da66535aff7e10da1ceb85a32bcbd9fa1c42314d194545e14d28585604051610f68929190612a09565b60405180910390a360008673ffffffffffffffffffffffffffffffffffffffff16868585604051610f9a929190612a5d565b60006040518083038185875af1925050503d8060008114610fd7576040519150601f19603f3d011682016040523d82523d6000602084013e610fdc565b606091505b50809350819250505080610ff257815160208301fd5b505b95945050505050565b60008060003073ffffffffffffffffffffffffffffffffffffffff1663fc0c546a6040518163ffffffff1660e01b8152600401606060405180830381865afa15801561104d573d6000803e3d6000fd5b505050506040513d601f19601f820116820180604052508101906110719190612aa0565b92509250508173ffffffffffffffffffffffffffffffffffffffff16636352211e826040518263ffffffff1660e01b81526004016110af919061216e565b602060405180830381865afa1580156110cc573d6000803e3d6000fd5b505050506040513d601f19601f820116820180604052508101906110f09190612af3565b9250505090565b60006001805490508210611140576040517f08c379a000000000000000000000000000000000000000000000000000000000815260040161113790612b6c565b60405180910390fd5b6001828154811061115457611153612443565b5b9060005260206000200160009054906101000a900473ffffffffffffffffffffffffffffffffffffffff169050919050565b60006020528060005260406000206000915054906101000a900473ffffffffffffffffffffffffffffffffffffffff1681565b60025481565b60007f0000000000000000000000000000000000000000000000000000000000000000905090565b600360009054906101000a900473ffffffffffffffffffffffffffffffffffffffff1681565b6000600180549050905090565b6000806040518060a00160405280600460009054906101000a900473ffffffffffffffffffffffffffffffffffffffff1660405160200161125b9190611d72565b60405160208183030381529060405281526020018888888888604051602401611288959493929190612712565b6040516020818303038152906040527f8ba7e570000000000000000000000000000000000000000000000000000000007bffffffffffffffffffffffffffffffffffffffffffffffffffffffff19166020820180517bffffffffffffffffffffffffffffffffffffffffffffffffffffffff83818316178352505050508152602001600067ffffffffffffffff81111561132557611324611b80565b5b60405190808252806020026020018201604052801561135e57816020015b61134b611a30565b8152602001906001900390816113435790505b508152602001600073ffffffffffffffffffffffffffffffffffffffff16815260200160405180602001604052806000815250815250905060008873ffffffffffffffffffffffffffffffffffffffff166320487ded8b846040518363ffffffff1660e01b81526004016113d3929190612931565b602060405180830381865afa1580156113f0573d6000803e3d6000fd5b505050506040513d601f19601f820116820180604052508101906114149190612b8c565b90508092505050979650505050505050565b60006002541461146b576040517f08c379a000000000000000000000000000000000000000000000000000000000815260040161146290612340565b60405180910390fd5b80600460006101000a81548173ffffffffffffffffffffffffffffffffffffffff021916908373ffffffffffffffffffffffffffffffffffffffff1602179055506002600081546114bb9061238f565b9190508190555050565b6000806000808473ffffffffffffffffffffffffffffffffffffffff1673ffffffffffffffffffffffffffffffffffffffff16815260200190815260200160002060009054906101000a900473ffffffffffffffffffffffffffffffffffffffff16905060008173ffffffffffffffffffffffffffffffffffffffff1663feaf968c6040518163ffffffff1660e01b815260040160a060405180830381865afa158015611576573d6000803e3d6000fd5b505050506040513d601f19601f8201168201806040525081019061159a9190612c27565b5050509150508092505050919050565b600181815481106115ba57600080fd5b906000526020600020016000915054906101000a900473ffffffffffffffffffffffffffffffffffffffff1681565b60008060006115f661173c565b925092509250909192565b600080600061161085856117bc565b50915091506000600381111561162957611628612ca2565b5b81600381111561163c5761163b612ca2565b5b14801561167457508573ffffffffffffffffffffffffffffffffffffffff168273ffffffffffffffffffffffffffffffffffffffff16145b806116865750611685868686611818565b5b925050509392505050565b60003073ffffffffffffffffffffffffffffffffffffffff1682606001516040516116bc9190612d02565b6000604051808303816000865af19150503d80600081146116f9576040519150601f19603f3d011682016040523d82523d6000602084013e6116fe565b606091505b505090508061170c57600080fd5b7fe0922c744b0a82a8a9c2f22a04c84050e6995b7f85fa6e2f99a5304506507bf160405160405180910390a15050565b600080600080606067ffffffffffffffff81111561175d5761175c611b80565b5b6040519080825280601f01601f19166020018201604052801561178f5781602001600182028036833780820191505090505b5090506060604d60208301303c808060200190518101906117b09190612d57565b93509350935050909192565b600080600060418451036118015760008060006020870151925060408701519150606087015160001a90506117f38882858561193c565b955095509550505050611811565b60006002855160001b9250925092505b9250925092565b60008060008573ffffffffffffffffffffffffffffffffffffffff168585604051602401611847929190612daa565b604051602081830303815290604052631626ba7e60e01b6020820180517bffffffffffffffffffffffffffffffffffffffffffffffffffffffff83818316178352505050506040516118999190612d02565b600060405180830381855afa9150503d80600081146118d4576040519150601f19603f3d011682016040523d82523d6000602084013e6118d9565b606091505b50915091508180156118ed57506020815110155b80156119315750631626ba7e60e01b7bffffffffffffffffffffffffffffffffffffffffffffffffffffffff19168180602001905181019061192f9190612976565b145b925050509392505050565b60008060007f7fffffffffffffffffffffffffffffff5d576e7357a4501ddfe92f46681b20a08460001c111561197c576000600385925092509250611a26565b6000600188888888604051600081526020016040526040516119a19493929190612df6565b6020604051602081039080840390855afa1580156119c3573d6000803e3d6000fd5b505050602060405103519050600073ffffffffffffffffffffffffffffffffffffffff168173ffffffffffffffffffffffffffffffffffffffff1603611a1757600060016000801b93509350935050611a26565b8060008060001b935093509350505b9450945094915050565b6040518060400160405280600073ffffffffffffffffffffffffffffffffffffffff168152602001600081525090565b6000604051905090565b600080fd5b600080fd5b60007fffffffff0000000000000000000000000000000000000000000000000000000082169050919050565b611aa981611a74565b8114611ab457600080fd5b50565b600081359050611ac681611aa0565b92915050565b600060208284031215611ae257611ae1611a6a565b5b6000611af084828501611ab7565b91505092915050565b60008115159050919050565b611b0e81611af9565b82525050565b6000602082019050611b296000830184611b05565b92915050565b6000819050919050565b611b4281611b2f565b8114611b4d57600080fd5b50565b600081359050611b5f81611b39565b92915050565b600080fd5b600080fd5b6000601f19601f8301169050919050565b7f4e487b7100000000000000000000000000000000000000000000000000000000600052604160045260246000fd5b611bb882611b6f565b810181811067ffffffffffffffff82111715611bd757611bd6611b80565b5b80604052505050565b6000611bea611a60565b9050611bf68282611baf565b919050565b600067ffffffffffffffff821115611c1657611c15611b80565b5b611c1f82611b6f565b9050602081019050919050565b82818337600083830152505050565b6000611c4e611c4984611bfb565b611be0565b905082815260208101848484011115611c6a57611c69611b6a565b5b611c75848285611c2c565b509392505050565b600082601f830112611c9257611c91611b65565b5b8135611ca2848260208601611c3b565b91505092915050565b60008060408385031215611cc257611cc1611a6a565b5b6000611cd085828601611b50565b925050602083013567ffffffffffffffff811115611cf157611cf0611a6f565b5b611cfd85828601611c7d565b9150509250929050565b611d1081611a74565b82525050565b6000602082019050611d2b6000830184611d07565b92915050565b600073ffffffffffffffffffffffffffffffffffffffff82169050919050565b6000611d5c82611d31565b9050919050565b611d6c81611d51565b82525050565b6000602082019050611d876000830184611d63565b92915050565b611d9681611d51565b8114611da157600080fd5b50565b600081359050611db381611d8d565b92915050565b600060208284031215611dcf57611dce611a6a565b5b6000611ddd84828501611da4565b91505092915050565b60008060408385031215611dfd57611dfc611a6a565b5b6000611e0b85828601611da4565b9250506020611e1c85828601611da4565b9150509250929050565b600080fd5b600060a08284031215611e4157611e40611e26565b5b81905092915050565b600060208284031215611e6057611e5f611a6a565b5b600082013567ffffffffffffffff811115611e7e57611e7d611a6f565b5b611e8a84828501611e2b565b91505092915050565b600081519050919050565b600082825260208201905092915050565b6000819050602082019050919050565b611ec881611d51565b82525050565b6000611eda8383611ebf565b60208301905092915050565b6000602082019050919050565b6000611efe82611e93565b611f088185611e9e565b9350611f1383611eaf565b8060005b83811015611f44578151611f2b8882611ece565b9750611f3683611ee6565b925050600181019050611f17565b5085935050505092915050565b60006020820190508181036000830152611f6b8184611ef3565b905092915050565b6000819050919050565b611f8681611f73565b8114611f9157600080fd5b50565b600081359050611fa381611f7d565b92915050565b600080fd5b600080fd5b60008083601f840112611fc957611fc8611b65565b5b8235905067ffffffffffffffff811115611fe657611fe5611fa9565b5b60208301915083600182028301111561200257612001611fae565b5b9250929050565b60008060008060006080868803121561202557612024611a6a565b5b600061203388828901611da4565b955050602061204488828901611f94565b945050604061205588828901611f94565b935050606086013567ffffffffffffffff81111561207657612075611a6f565b5b61208288828901611fb3565b92509250509295509295909350565b600081519050919050565b600082825260208201905092915050565b60005b838110156120cb5780820151818401526020810190506120b0565b60008484015250505050565b60006120e282612091565b6120ec818561209c565b93506120fc8185602086016120ad565b61210581611b6f565b840191505092915050565b6000602082019050818103600083015261212a81846120d7565b905092915050565b60006020828403121561214857612147611a6a565b5b600061215684828501611f94565b91505092915050565b61216881611f73565b82525050565b6000602082019050612183600083018461215f565b92915050565b600067ffffffffffffffff82169050919050565b6121a681612189565b81146121b157600080fd5b50565b6000813590506121c38161219d565b92915050565b600080600080600080600060c0888a0312156121e8576121e7611a6a565b5b60006121f68a828b016121b4565b97505060206122078a828b01611da4565b96505060406122188a828b01611da4565b95505060606122298a828b01611f94565b945050608061223a8a828b01611f94565b93505060a088013567ffffffffffffffff81111561225b5761225a611a6f565b5b6122678a828b01611fb3565b925092505092959891949750929550565b6000819050919050565b61228b81612278565b82525050565b60006020820190506122a66000830184612282565b92915050565b60006060820190506122c1600083018661215f565b6122ce6020830185611d63565b6122db604083018461215f565b949350505050565b600082825260208201905092915050565b7f6e65656420746f2073657420696e206669727374207472616e73616374696f6e600082015250565b600061232a6020836122e3565b9150612335826122f4565b602082019050919050565b600060208201905081810360008301526123598161231d565b9050919050565b7f4e487b7100000000000000000000000000000000000000000000000000000000600052601160045260246000fd5b600061239a82611f73565b91507fffffffffffffffffffffffffffffffffffffffffffffffffffffffffffffffff82036123cc576123cb612360565b5b600182019050919050565b7f4e6f7420746f6b656e206f776e65720000000000000000000000000000000000600082015250565b600061240d600f836122e3565b9150612418826123d7565b602082019050919050565b6000602082019050818103600083015261243c81612400565b9050919050565b7f4e487b7100000000000000000000000000000000000000000000000000000000600052603260045260246000fd5b600061247d82611f73565b915061248883611f73565b92508282039050818111156124a05761249f612360565b5b92915050565b7f4e487b7100000000000000000000000000000000000000000000000000000000600052603160045260246000fd5b600080fd5b600080fd5b600067ffffffffffffffff8211156124fa576124f9611b80565b5b602082029050602081019050919050565b600060408284031215612521576125206124d5565b5b61252b6040611be0565b9050600061253b84828501611da4565b600083015250602061254f84828501611f94565b60208301525092915050565b600061256e612569846124df565b611be0565b9050808382526020820190506040840283018581111561259157612590611fae565b5b835b818110156125ba57806125a6888261250b565b845260208401935050604081019050612593565b5050509392505050565b600082601f8301126125d9576125d8611b65565b5b81356125e984826020860161255b565b91505092915050565b600060a08284031215612608576126076124d5565b5b61261260a0611be0565b9050600061262284828501611b50565b6000830152506020612636848285016121b4565b602083015250604082013567ffffffffffffffff81111561265a576126596124da565b5b61266684828501611c7d565b604083015250606082013567ffffffffffffffff81111561268a576126896124da565b5b61269684828501611c7d565b606083015250608082013567ffffffffffffffff8111156126ba576126b96124da565b5b6126c6848285016125c4565b60808301525092915050565b60006126de36836125f2565b9050919050565b60006126f1838561209c565b93506126fe838584611c2c565b61270783611b6f565b840190509392505050565b60006080820190506127276000830188611d63565b612734602083018761215f565b612741604083018661215f565b81810360608301526127548184866126e5565b90509695505050505050565b61276981612189565b82525050565b600082825260208201905092915050565b600061278b82612091565b612795818561276f565b93506127a58185602086016120ad565b6127ae81611b6f565b840191505092915050565b600081519050919050565b600082825260208201905092915050565b6000819050602082019050919050565b6127ee81611f73565b82525050565b60408201600082015161280a6000850182611ebf565b50602082015161281d60208501826127e5565b50505050565b600061282f83836127f4565b60408301905092915050565b6000602082019050919050565b6000612853826127b9565b61285d81856127c4565b9350612868836127d5565b8060005b838110156128995781516128808882612823565b975061288b8361283b565b92505060018101905061286c565b5085935050505092915050565b600060a08301600083015184820360008601526128c38282612780565b915050602083015184820360208601526128dd8282612780565b915050604083015184820360408601526128f78282612848565b915050606083015161290c6060860182611ebf565b50608083015184820360808601526129248282612780565b9150508091505092915050565b60006040820190506129466000830185612760565b818103602083015261295881846128a6565b90509392505050565b60008151905061297081611b39565b92915050565b60006020828403121561298c5761298b611a6a565b5b600061299a84828501612961565b91505092915050565b6129ac81611b2f565b82525050565b60006020820190506129c760008301846129a3565b92915050565b6000819050919050565b6129e86129e382611b2f565b6129cd565b82525050565b60006129fa82846129d7565b60208201915081905092915050565b60006020820190508181036000830152612a248184866126e5565b90509392505050565b600081905092915050565b6000612a448385612a2d565b9350612a51838584611c2c565b82840190509392505050565b6000612a6a828486612a38565b91508190509392505050565b600081519050612a8581611f7d565b92915050565b600081519050612a9a81611d8d565b92915050565b600080600060608486031215612ab957612ab8611a6a565b5b6000612ac786828701612a76565b9350506020612ad886828701612a8b565b9250506040612ae986828701612a76565b9150509250925092565b600060208284031215612b0957612b08611a6a565b5b6000612b1784828501612a8b565b91505092915050565b7f496e646578206f7574206f6620626f756e647300000000000000000000000000600082015250565b6000612b566013836122e3565b9150612b6182612b20565b602082019050919050565b60006020820190508181036000830152612b8581612b49565b9050919050565b600060208284031215612ba257612ba1611a6a565b5b6000612bb084828501612a76565b91505092915050565b600069ffffffffffffffffffff82169050919050565b612bd881612bb9565b8114612be357600080fd5b50565b600081519050612bf581612bcf565b92915050565b612c0481612278565b8114612c0f57600080fd5b50565b600081519050612c2181612bfb565b92915050565b600080600080600060a08688031215612c4357612c42611a6a565b5b6000612c5188828901612be6565b9550506020612c6288828901612c12565b9450506040612c7388828901612a76565b9350506060612c8488828901612a76565b9250506080612c9588828901612be6565b9150509295509295909350565b7f4e487b7100000000000000000000000000000000000000000000000000000000600052602160045260246000fd5b6000612cdc82612091565b612ce68185612a2d565b9350612cf68185602086016120ad565b80840191505092915050565b6000612d0e8284612cd1565b915081905092915050565b6000612d2482611d31565b9050919050565b612d3481612d19565b8114612d3f57600080fd5b50565b600081519050612d5181612d2b565b92915050565b600080600060608486031215612d7057612d6f611a6a565b5b6000612d7e86828701612a76565b9350506020612d8f86828701612d42565b9250506040612da086828701612a76565b9150509250925092565b6000604082019050612dbf60008301856129a3565b8181036020830152612dd181846120d7565b90509392505050565b600060ff82169050919050565b612df081612dda565b82525050565b6000608082019050612e0b60008301876129a3565b612e186020830186612de7565b612e2560408301856129a3565b612e3260608301846129a3565b9594505050505056fea26469706673582212200355f90e2cee70b2aa1e2edd61c72409eec1d1628b482ba5b1198a5cdf63258964736f6c63430008140033",
  "linkReferences": {},
  "deployedLinkReferences": {}
}