{
  "_format": "hh-sol-artifact-1",
  "contractName": "TokenArray",
  "sourceName": "contracts/lib/TokenArray.sol",
  "abi": [
    {
      "inputs": [
        {
          "internalType": "address",
          "name": "",
          "type": "address"
        }
      ],
      "name": "dataFeedAddress",
      "outputs": [
        {
          "internalType": "address",
          "name": "",
          "type": "address"
        }
      ],
      "stateMutability": "view",
      "type": "function"
    },
    {
      "inputs": [],
      "name": "getAllToken",
      "outputs": [
        {
          "internalType": "address[]",
          "name": "",
          "type": "address[]"
        }
      ],
      "stateMutability": "view",
      "type": "function"
    },
    {
      "inputs": [
        {
          "internalType": "address",
          "name": "_token",
          "type": "address"
        }
      ],
      "name": "getChainlinkDataFeedLatestAnswer",
      "outputs": [
        {
          "internalType": "int256",
          "name": "",
          "type": "int256"
        }
      ],
      "stateMutability": "view",
      "type": "function"
    },
    {
      "inputs": [],
      "name": "getTokenArrayLength",
      "outputs": [
        {
          "internalType": "uint256",
          "name": "",
          "type": "uint256"
        }
      ],
      "stateMutability": "view",
      "type": "function"
    },
    {
      "inputs": [
        {
          "internalType": "uint256",
          "name": "index",
          "type": "uint256"
        }
      ],
      "name": "getTokenAtIndex",
      "outputs": [
        {
          "internalType": "address",
          "name": "",
          "type": "address"
        }
      ],
      "stateMutability": "view",
      "type": "function"
    },
    {
      "inputs": [
        {
          "internalType": "uint256",
          "name": "",
          "type": "uint256"
        }
      ],
      "name": "tokenArray",
      "outputs": [
        {
          "internalType": "address",
          "name": "",
          "type": "address"
        }
      ],
      "stateMutability": "view",
      "type": "function"
    }
  ],
  "bytecode": "0x608060405234801561001057600080fd5b5061081f806100206000396000f3fe608060405234801561001057600080fd5b50600436106100625760003560e01c806385e3c1d41461006757806397988dce14610085578063a8320b1b146100b5578063b15345ab146100e5578063e7078f9214610103578063faa32f5d14610133575b600080fd5b61006f610163565b60405161007c91906104d4565b60405180910390f35b61009f600480360381019061009a9190610531565b6101f1565b6040516100ac919061056d565b60405180910390f35b6100cf60048036038101906100ca91906105b4565b610280565b6040516100dc919061056d565b60405180910390f35b6100ed6102b3565b6040516100fa91906105f0565b60405180910390f35b61011d600480360381019061011891906105b4565b6102c0565b60405161012a9190610624565b60405180910390f35b61014d60048036038101906101489190610531565b6103a5565b60405161015a919061056d565b60405180910390f35b606060018054806020026020016040519081016040528092919081815260200182805480156101e757602002820191906000526020600020905b8160009054906101000a900473ffffffffffffffffffffffffffffffffffffffff1673ffffffffffffffffffffffffffffffffffffffff168152602001906001019080831161019d575b5050505050905090565b6000600180549050821061023a576040517f08c379a00000000000000000000000000000000000000000000000000000000081526004016102319061069c565b60405180910390fd5b6001828154811061024e5761024d6106bc565b5b9060005260206000200160009054906101000a900473ffffffffffffffffffffffffffffffffffffffff169050919050565b60006020528060005260406000206000915054906101000a900473ffffffffffffffffffffffffffffffffffffffff1681565b6000600180549050905090565b6000806000808473ffffffffffffffffffffffffffffffffffffffff1673ffffffffffffffffffffffffffffffffffffffff16815260200190815260200160002060009054906101000a900473ffffffffffffffffffffffffffffffffffffffff16905060008173ffffffffffffffffffffffffffffffffffffffff1663feaf968c6040518163ffffffff1660e01b815260040160a060405180830381865afa158015610371573d6000803e3d6000fd5b505050506040513d601f19601f82011682018060405250810190610395919061076e565b5050509150508092505050919050565b600181815481106103b557600080fd5b906000526020600020016000915054906101000a900473ffffffffffffffffffffffffffffffffffffffff1681565b600081519050919050565b600082825260208201905092915050565b6000819050602082019050919050565b600073ffffffffffffffffffffffffffffffffffffffff82169050919050565b600061043b82610410565b9050919050565b61044b81610430565b82525050565b600061045d8383610442565b60208301905092915050565b6000602082019050919050565b6000610481826103e4565b61048b81856103ef565b935061049683610400565b8060005b838110156104c75781516104ae8882610451565b97506104b983610469565b92505060018101905061049a565b5085935050505092915050565b600060208201905081810360008301526104ee8184610476565b905092915050565b600080fd5b6000819050919050565b61050e816104fb565b811461051957600080fd5b50565b60008135905061052b81610505565b92915050565b600060208284031215610547576105466104f6565b5b60006105558482850161051c565b91505092915050565b61056781610430565b82525050565b6000602082019050610582600083018461055e565b92915050565b61059181610430565b811461059c57600080fd5b50565b6000813590506105ae81610588565b92915050565b6000602082840312156105ca576105c96104f6565b5b60006105d88482850161059f565b91505092915050565b6105ea816104fb565b82525050565b600060208201905061060560008301846105e1565b92915050565b6000819050919050565b61061e8161060b565b82525050565b60006020820190506106396000830184610615565b92915050565b600082825260208201905092915050565b7f496e646578206f7574206f6620626f756e647300000000000000000000000000600082015250565b600061068660138361063f565b915061069182610650565b602082019050919050565b600060208201905081810360008301526106b581610679565b9050919050565b7f4e487b7100000000000000000000000000000000000000000000000000000000600052603260045260246000fd5b600069ffffffffffffffffffff82169050919050565b61070a816106eb565b811461071557600080fd5b50565b60008151905061072781610701565b92915050565b6107368161060b565b811461074157600080fd5b50565b6000815190506107538161072d565b92915050565b60008151905061076881610505565b92915050565b600080600080600060a0868803121561078a576107896104f6565b5b600061079888828901610718565b95505060206107a988828901610744565b94505060406107ba88828901610759565b93505060606107cb88828901610759565b92505060806107dc88828901610718565b915050929550929590935056fea264697066735822122004a8a06ca0f5db07f36d468cb9735b61beeb858f4625899241f5406125f92f1764736f6c63430008140033",
  "linkReferences": {},
  "deployedLinkReferences": {}
}