{
  "_format": "hh-sol-artifact-1",
  "contractName": "ERC6551Registry",
  "sourceName": "contracts/ERC6551Registry.sol",
  "abi": [
    {
      "inputs": [
        {
          "internalType": "address",
          "name": "router",
          "type": "address"
        }
      ],
      "stateMutability": "nonpayable",
      "type": "constructor"
    },
    {
      "inputs": [],
      "name": "Create2EmptyBytecode",
      "type": "error"
    },
    {
      "inputs": [],
      "name": "Create2FailedDeployment",
      "type": "error"
    },
    {
      "inputs": [
        {
          "internalType": "uint256",
          "name": "balance",
          "type": "uint256"
        },
        {
          "internalType": "uint256",
          "name": "needed",
          "type": "uint256"
        }
      ],
      "name": "Create2InsufficientBalance",
      "type": "error"
    },
    {
      "inputs": [
        {
          "internalType": "address",
          "name": "owner",
          "type": "address"
        },
        {
          "internalType": "address",
          "name": "target",
          "type": "address"
        },
        {
          "internalType": "uint256",
          "name": "value",
          "type": "uint256"
        }
      ],
      "name": "FailedToWithdrawEth",
      "type": "error"
    },
    {
      "inputs": [],
      "name": "InitializationFailed",
      "type": "error"
    },
    {
      "inputs": [
        {
          "internalType": "address",
          "name": "router",
          "type": "address"
        }
      ],
      "name": "InvalidRouter",
      "type": "error"
    },
    {
      "anonymous": false,
      "inputs": [
        {
          "indexed": false,
          "internalType": "address",
          "name": "account",
          "type": "address"
        },
        {
          "indexed": false,
          "internalType": "address",
          "name": "implementation",
          "type": "address"
        },
        {
          "indexed": false,
          "internalType": "uint256",
          "name": "chainId",
          "type": "uint256"
        },
        {
          "indexed": false,
          "internalType": "address",
          "name": "tokenContract",
          "type": "address"
        },
        {
          "indexed": false,
          "internalType": "uint256",
          "name": "tokenId",
          "type": "uint256"
        },
        {
          "indexed": false,
          "internalType": "uint256",
          "name": "salt",
          "type": "uint256"
        }
      ],
      "name": "AccountCreated",
      "type": "event"
    },
    {
      "anonymous": false,
      "inputs": [],
      "name": "CreateAccountCallSuccessfull",
      "type": "event"
    },
    {
      "anonymous": false,
      "inputs": [
        {
          "indexed": false,
          "internalType": "bytes32",
          "name": "messageId",
          "type": "bytes32"
        }
      ],
      "name": "MessageSent",
      "type": "event"
    },
    {
      "anonymous": false,
      "inputs": [
        {
          "indexed": true,
          "internalType": "address",
          "name": "from",
          "type": "address"
        },
        {
          "indexed": true,
          "internalType": "address",
          "name": "to",
          "type": "address"
        }
      ],
      "name": "OwnershipTransferRequested",
      "type": "event"
    },
    {
      "anonymous": false,
      "inputs": [
        {
          "indexed": true,
          "internalType": "address",
          "name": "from",
          "type": "address"
        },
        {
          "indexed": true,
          "internalType": "address",
          "name": "to",
          "type": "address"
        }
      ],
      "name": "OwnershipTransferred",
      "type": "event"
    },
    {
      "inputs": [],
      "name": "CCIPRouteAddress",
      "outputs": [
        {
          "internalType": "address",
          "name": "",
          "type": "address"
        }
      ],
      "stateMutability": "view",
      "type": "function"
    },
    {
      "inputs": [
        {
          "internalType": "uint256",
          "name": "",
          "type": "uint256"
        }
      ],
      "name": "ERC6551AccountAddress",
      "outputs": [
        {
          "internalType": "address",
          "name": "",
          "type": "address"
        }
      ],
      "stateMutability": "view",
      "type": "function"
    },
    {
      "inputs": [
        {
          "internalType": "uint256",
          "name": "",
          "type": "uint256"
        }
      ],
      "name": "ERC6551RegistryAddress",
      "outputs": [
        {
          "internalType": "address",
          "name": "",
          "type": "address"
        }
      ],
      "stateMutability": "view",
      "type": "function"
    },
    {
      "inputs": [],
      "name": "acceptOwnership",
      "outputs": [],
      "stateMutability": "nonpayable",
      "type": "function"
    },
    {
      "inputs": [
        {
          "internalType": "address",
          "name": "implementation",
          "type": "address"
        },
        {
          "internalType": "uint256",
          "name": "chainId",
          "type": "uint256"
        },
        {
          "internalType": "address",
          "name": "tokenContract",
          "type": "address"
        },
        {
          "internalType": "uint256",
          "name": "tokenId",
          "type": "uint256"
        },
        {
          "internalType": "uint256",
          "name": "salt",
          "type": "uint256"
        }
      ],
      "name": "account",
      "outputs": [
        {
          "internalType": "address",
          "name": "",
          "type": "address"
        }
      ],
      "stateMutability": "view",
      "type": "function"
    },
    {
      "inputs": [
        {
          "internalType": "uint256",
          "name": "_chain",
          "type": "uint256"
        },
        {
          "internalType": "address",
          "name": "_ERC6551Registry",
          "type": "address"
        },
        {
          "internalType": "address",
          "name": "_ERC6551Account",
          "type": "address"
        },
        {
          "internalType": "uint64",
          "name": "_destinationChainSelector",
          "type": "uint64"
        }
      ],
      "name": "addCCIPAddress",
      "outputs": [],
      "stateMutability": "nonpayable",
      "type": "function"
    },
    {
      "inputs": [
        {
          "internalType": "uint256",
          "name": "chainId",
          "type": "uint256"
        },
        {
          "internalType": "address",
          "name": "tokenContract",
          "type": "address"
        },
        {
          "internalType": "uint256",
          "name": "tokenId",
          "type": "uint256"
        },
        {
          "internalType": "uint256",
          "name": "salt",
          "type": "uint256"
        },
        {
          "internalType": "bytes",
          "name": "initData",
          "type": "bytes"
        }
      ],
      "name": "caculateFee",
      "outputs": [
        {
          "internalType": "uint256",
          "name": "",
          "type": "uint256"
        }
      ],
      "stateMutability": "view",
      "type": "function"
    },
    {
      "inputs": [
        {
          "components": [
            {
              "internalType": "bytes32",
              "name": "messageId",
              "type": "bytes32"
            },
            {
              "internalType": "uint64",
              "name": "sourceChainSelector",
              "type": "uint64"
            },
            {
              "internalType": "bytes",
              "name": "sender",
              "type": "bytes"
            },
            {
              "internalType": "bytes",
              "name": "data",
              "type": "bytes"
            },
            {
              "components": [
                {
                  "internalType": "address",
                  "name": "token",
                  "type": "address"
                },
                {
                  "internalType": "uint256",
                  "name": "amount",
                  "type": "uint256"
                }
              ],
              "internalType": "struct Client.EVMTokenAmount[]",
              "name": "destTokenAmounts",
              "type": "tuple[]"
            }
          ],
          "internalType": "struct Client.Any2EVMMessage",
          "name": "message",
          "type": "tuple"
        }
      ],
      "name": "ccipReceive",
      "outputs": [],
      "stateMutability": "nonpayable",
      "type": "function"
    },
    {
      "inputs": [
        {
          "internalType": "address",
          "name": "implementation",
          "type": "address"
        },
        {
          "internalType": "uint256",
          "name": "chainId",
          "type": "uint256"
        },
        {
          "internalType": "address",
          "name": "tokenContract",
          "type": "address"
        },
        {
          "internalType": "uint256",
          "name": "tokenId",
          "type": "uint256"
        },
        {
          "internalType": "uint256",
          "name": "salt",
          "type": "uint256"
        },
        {
          "internalType": "bytes",
          "name": "initData",
          "type": "bytes"
        }
      ],
      "name": "createAccount",
      "outputs": [
        {
          "internalType": "address",
          "name": "",
          "type": "address"
        }
      ],
      "stateMutability": "payable",
      "type": "function"
    },
    {
      "inputs": [
        {
          "internalType": "uint256",
          "name": "",
          "type": "uint256"
        }
      ],
      "name": "destinationChainSelector",
      "outputs": [
        {
          "internalType": "uint64",
          "name": "",
          "type": "uint64"
        }
      ],
      "stateMutability": "view",
      "type": "function"
    },
    {
      "inputs": [],
      "name": "getRouter",
      "outputs": [
        {
          "internalType": "address",
          "name": "",
          "type": "address"
        }
      ],
      "stateMutability": "view",
      "type": "function"
    },
    {
      "inputs": [],
      "name": "owner",
      "outputs": [
        {
          "internalType": "address",
          "name": "",
          "type": "address"
        }
      ],
      "stateMutability": "view",
      "type": "function"
    },
    {
      "inputs": [
        {
          "internalType": "bytes4",
          "name": "interfaceId",
          "type": "bytes4"
        }
      ],
      "name": "supportsInterface",
      "outputs": [
        {
          "internalType": "bool",
          "name": "",
          "type": "bool"
        }
      ],
      "stateMutability": "pure",
      "type": "function"
    },
    {
      "inputs": [
        {
          "internalType": "address",
          "name": "to",
          "type": "address"
        }
      ],
      "name": "transferOwnership",
      "outputs": [],
      "stateMutability": "nonpayable",
      "type": "function"
    },
    {
      "inputs": [
        {
          "internalType": "address",
          "name": "beneficiary",
          "type": "address"
        }
      ],
      "name": "withdraw",
      "outputs": [],
      "stateMutability": "nonpayable",
      "type": "function"
    },
    {
      "inputs": [
        {
          "internalType": "address",
          "name": "beneficiary",
          "type": "address"
        },
        {
          "internalType": "address",
          "name": "token",
          "type": "address"
        }
      ],
      "name": "withdrawToken",
      "outputs": [],
      "stateMutability": "nonpayable",
      "type": "function"
    }
  ],
  "bytecode": "0x60a06040523480156200001157600080fd5b5060405162002e5238038062002e528339818101604052810190620000379190620003c3565b3380600083600073ffffffffffffffffffffffffffffffffffffffff168173ffffffffffffffffffffffffffffffffffffffff1603620000b15760006040517fd7f73334000000000000000000000000000000000000000000000000000000008152600401620000a8919062000406565b60405180910390fd5b8073ffffffffffffffffffffffffffffffffffffffff1660808173ffffffffffffffffffffffffffffffffffffffff168152505050600073ffffffffffffffffffffffffffffffffffffffff168273ffffffffffffffffffffffffffffffffffffffff160362000158576040517f08c379a00000000000000000000000000000000000000000000000000000000081526004016200014f9062000484565b60405180910390fd5b816000806101000a81548173ffffffffffffffffffffffffffffffffffffffff021916908373ffffffffffffffffffffffffffffffffffffffff160217905550600073ffffffffffffffffffffffffffffffffffffffff168173ffffffffffffffffffffffffffffffffffffffff1614620001df57620001de816200022a60201b60201c565b5b50505080600460006101000a81548173ffffffffffffffffffffffffffffffffffffffff021916908373ffffffffffffffffffffffffffffffffffffffff1602179055505062000518565b3373ffffffffffffffffffffffffffffffffffffffff168173ffffffffffffffffffffffffffffffffffffffff16036200029b576040517f08c379a00000000000000000000000000000000000000000000000000000000081526004016200029290620004f6565b60405180910390fd5b80600160006101000a81548173ffffffffffffffffffffffffffffffffffffffff021916908373ffffffffffffffffffffffffffffffffffffffff1602179055508073ffffffffffffffffffffffffffffffffffffffff1660008054906101000a900473ffffffffffffffffffffffffffffffffffffffff1673ffffffffffffffffffffffffffffffffffffffff167fed8889f560326eb138920d842192f0eb3dd22b4f139c87a2c57538e05bae127860405160405180910390a350565b600080fd5b600073ffffffffffffffffffffffffffffffffffffffff82169050919050565b60006200038b826200035e565b9050919050565b6200039d816200037e565b8114620003a957600080fd5b50565b600081519050620003bd8162000392565b92915050565b600060208284031215620003dc57620003db62000359565b5b6000620003ec84828501620003ac565b91505092915050565b62000400816200037e565b82525050565b60006020820190506200041d6000830184620003f5565b92915050565b600082825260208201905092915050565b7f43616e6e6f7420736574206f776e657220746f207a65726f0000000000000000600082015250565b60006200046c60188362000423565b9150620004798262000434565b602082019050919050565b600060208201905081810360008301526200049f816200045d565b9050919050565b7f43616e6e6f74207472616e7366657220746f2073656c66000000000000000000600082015250565b6000620004de60178362000423565b9150620004eb82620004a6565b602082019050919050565b600060208201905081810360008301526200051181620004cf565b9050919050565b6080516129176200053b600039600081816109830152610a5301526129176000f3fe6080604052600436106100f35760003560e01c80638da5cb5b1161008a578063da7323b311610059578063da7323b314610328578063e0ddbf2114610358578063f2fde38b14610395578063f86660e2146103be576100f3565b80638da5cb5b1461026a578063b0f479a114610295578063b713d283146102c0578063c9ad49eb146102fd576100f3565b80635d610723116100c65780635d610723146101c45780635e9bc536146101ed57806379ba50971461022a57806385572ffb14610241576100f3565b806301ffc9a7146100f857806314b6e9c0146101355780633aeac4e11461017257806351cff8d91461019b575b600080fd5b34801561010457600080fd5b5061011f600480360381019061011a919061170f565b6103fb565b60405161012c9190611757565b60405180910390f35b34801561014157600080fd5b5061015c600480360381019061015791906117a8565b6104cd565b6040516101699190611816565b60405180910390f35b34801561017e57600080fd5b506101996004803603810190610194919061185d565b610500565b005b3480156101a757600080fd5b506101c260048036038101906101bd919061189d565b61060a565b005b3480156101d057600080fd5b506101eb60048036038101906101e6919061190a565b6106ce565b005b3480156101f957600080fd5b50610214600480360381019061020f9190611971565b6107ba565b6040516102219190611816565b60405180910390f35b34801561023657600080fd5b5061023f6107ec565b005b34801561024d57600080fd5b5061026860048036038101906102639190611a10565b610981565b005b34801561027657600080fd5b5061027f610a26565b60405161028c9190611816565b60405180910390f35b3480156102a157600080fd5b506102aa610a4f565b6040516102b79190611816565b60405180910390f35b3480156102cc57600080fd5b506102e760048036038101906102e291906117a8565b610a77565b6040516102f49190611816565b60405180910390f35b34801561030957600080fd5b50610312610aaa565b60405161031f9190611816565b60405180910390f35b610342600480360381019061033d9190611abe565b610ad0565b60405161034f9190611816565b60405180910390f35b34801561036457600080fd5b5061037f600480360381019061037a91906117a8565b610f9f565b60405161038c9190611b7c565b60405180910390f35b3480156103a157600080fd5b506103bc60048036038101906103b7919061189d565b610fc6565b005b3480156103ca57600080fd5b506103e560048036038101906103e09190611b97565b610fda565b6040516103f29190611c40565b60405180910390f35b60007f85572ffb000000000000000000000000000000000000000000000000000000007bffffffffffffffffffffffffffffffffffffffffffffffffffffffff1916827bffffffffffffffffffffffffffffffffffffffffffffffffffffffff191614806104c657507f01ffc9a7000000000000000000000000000000000000000000000000000000007bffffffffffffffffffffffffffffffffffffffffffffffffffffffff1916827bffffffffffffffffffffffffffffffffffffffffffffffffffffffff1916145b9050919050565b60026020528060005260406000206000915054906101000a900473ffffffffffffffffffffffffffffffffffffffff1681565b61050861127c565b60008173ffffffffffffffffffffffffffffffffffffffff166370a08231306040518263ffffffff1660e01b81526004016105439190611816565b602060405180830381865afa158015610560573d6000803e3d6000fd5b505050506040513d601f19601f820116820180604052508101906105849190611c70565b90508173ffffffffffffffffffffffffffffffffffffffff1663a9059cbb84836040518363ffffffff1660e01b81526004016105c1929190611c9d565b6020604051808303816000875af11580156105e0573d6000803e3d6000fd5b505050506040513d601f19601f820116820180604052508101906106049190611cf2565b50505050565b61061261127c565b600047905060008273ffffffffffffffffffffffffffffffffffffffff168260405161063d90611d50565b60006040518083038185875af1925050503d806000811461067a576040519150601f19603f3d011682016040523d82523d6000602084013e61067f565b606091505b50509050806106c9573383836040517f9d11f5630000000000000000000000000000000000000000000000000000000081526004016106c093929190611d65565b60405180910390fd5b505050565b6106d661127c565b826002600086815260200190815260200160002060006101000a81548173ffffffffffffffffffffffffffffffffffffffff021916908373ffffffffffffffffffffffffffffffffffffffff160217905550816003600086815260200190815260200160002060006101000a81548173ffffffffffffffffffffffffffffffffffffffff021916908373ffffffffffffffffffffffffffffffffffffffff160217905550806005600086815260200190815260200160002060006101000a81548167ffffffffffffffff021916908367ffffffffffffffff16021790555050505050565b6000806107ca878787878761130c565b8051906020012090506107e08360001b82611360565b91505095945050505050565b600160009054906101000a900473ffffffffffffffffffffffffffffffffffffffff1673ffffffffffffffffffffffffffffffffffffffff163373ffffffffffffffffffffffffffffffffffffffff161461087c576040517f08c379a000000000000000000000000000000000000000000000000000000000815260040161087390611df9565b60405180910390fd5b60008060009054906101000a900473ffffffffffffffffffffffffffffffffffffffff169050336000806101000a81548173ffffffffffffffffffffffffffffffffffffffff021916908373ffffffffffffffffffffffffffffffffffffffff1602179055506000600160006101000a81548173ffffffffffffffffffffffffffffffffffffffff021916908373ffffffffffffffffffffffffffffffffffffffff1602179055503373ffffffffffffffffffffffffffffffffffffffff168173ffffffffffffffffffffffffffffffffffffffff167f8be0079c531659141344cd1fd0a4f28419497f9722a3daafe3b4186f6b6457e060405160405180910390a350565b7f000000000000000000000000000000000000000000000000000000000000000073ffffffffffffffffffffffffffffffffffffffff163373ffffffffffffffffffffffffffffffffffffffff1614610a1157336040517fd7f73334000000000000000000000000000000000000000000000000000000008152600401610a089190611816565b60405180910390fd5b610a2381610a1e9061218d565b611375565b50565b60008060009054906101000a900473ffffffffffffffffffffffffffffffffffffffff16905090565b60007f0000000000000000000000000000000000000000000000000000000000000000905090565b60036020528060005260406000206000915054906101000a900473ffffffffffffffffffffffffffffffffffffffff1681565b600460009054906101000a900473ffffffffffffffffffffffffffffffffffffffff1681565b600080610ae0898989898961130c565b90506000610af88660001b8380519060200120611360565b905060008173ffffffffffffffffffffffffffffffffffffffff163b14610b23578092505050610f94565b610b3260008760001b84611420565b9050884614610e9a5760008082604051602401610b4f9190611816565b6040516020818303038152906040527f45facd8e000000000000000000000000000000000000000000000000000000007bffffffffffffffffffffffffffffffffffffffffffffffffffffffff19166020820180517bffffffffffffffffffffffffffffffffffffffffffffffffffffffff8381831617835250505050905060006040518060a00160405280600260008f815260200190815260200160002060009054906101000a900473ffffffffffffffffffffffffffffffffffffffff16604051602001610c1f9190611816565b6040516020818303038152906040528152602001600360008f815260200190815260200160002060009054906101000a900473ffffffffffffffffffffffffffffffffffffffff168e8e8e8e88604051602401610c819695949392919061221f565b6040516020818303038152906040527fda7323b3000000000000000000000000000000000000000000000000000000007bffffffffffffffffffffffffffffffffffffffffffffffffffffffff19166020820180517bffffffffffffffffffffffffffffffffffffffffffffffffffffffff83818316178352505050508152602001600067ffffffffffffffff811115610d1e57610d1d611e2f565b5b604051908082528060200260200182016040528015610d5757816020015b610d44611673565b815260200190600190039081610d3c5790505b508152602001600073ffffffffffffffffffffffffffffffffffffffff1681526020016040518060200160405280600081525081525090506000600560008e815260200190815260200160002060009054906101000a900467ffffffffffffffff169050600460009054906101000a900473ffffffffffffffffffffffffffffffffffffffff1673ffffffffffffffffffffffffffffffffffffffff166396f4e9f93483856040518463ffffffff1660e01b8152600401610e19929190612458565b60206040518083038185885af1158015610e37573d6000803e3d6000fd5b50505050506040513d601f19601f82011682018060405250810190610e5c919061249d565b93507f54791b38f3859327992a1ca0590ad3c0f08feba98d1a4f56ab0dca74d203392a84604051610e8d91906124d9565b60405180910390a1505050505b60008585905014610f4d5760008173ffffffffffffffffffffffffffffffffffffffff168686604051610ece929190612519565b6000604051808303816000865af19150503d8060008114610f0b576040519150601f19603f3d011682016040523d82523d6000602084013e610f10565b606091505b5050905080610f4b576040517f19b991a800000000000000000000000000000000000000000000000000000000815260040160405180910390fd5b505b7f07fba7bba1191da7ee1155dcfa0030701c9c9a9cc34a93b991fc6fd0c9268d8f818b8b8b8b8b604051610f8696959493929190612532565b60405180910390a180925050505b979650505050505050565b60056020528060005260406000206000915054906101000a900467ffffffffffffffff1681565b610fce61127c565b610fd78161151c565b50565b6000806005600089815260200190815260200160002060009054906101000a900467ffffffffffffffff16905060006040518060a00160405280600260008c815260200190815260200160002060009054906101000a900473ffffffffffffffffffffffffffffffffffffffff166040516020016110589190611816565b6040516020818303038152906040528152602001600360008c815260200190815260200160002060009054906101000a900473ffffffffffffffffffffffffffffffffffffffff168b8b8b8b8b8b6040516024016110bc97969594939291906125c0565b6040516020818303038152906040527fda7323b3000000000000000000000000000000000000000000000000000000007bffffffffffffffffffffffffffffffffffffffffffffffffffffffff19166020820180517bffffffffffffffffffffffffffffffffffffffffffffffffffffffff83818316178352505050508152602001600067ffffffffffffffff81111561115957611158611e2f565b5b60405190808252806020026020018201604052801561119257816020015b61117f611673565b8152602001906001900390816111775790505b508152602001600073ffffffffffffffffffffffffffffffffffffffff1681526020016040518060200160405280600081525081525090506000600460009054906101000a900473ffffffffffffffffffffffffffffffffffffffff1673ffffffffffffffffffffffffffffffffffffffff166320487ded84846040518363ffffffff1660e01b8152600401611229929190612458565b602060405180830381865afa158015611246573d6000803e3d6000fd5b505050506040513d601f19601f8201168201806040525081019061126a9190611c70565b90508093505050509695505050505050565b60008054906101000a900473ffffffffffffffffffffffffffffffffffffffff1673ffffffffffffffffffffffffffffffffffffffff163373ffffffffffffffffffffffffffffffffffffffff161461130a576040517f08c379a000000000000000000000000000000000000000000000000000000000815260040161130190612676565b60405180910390fd5b565b606085828686866040516020016113269493929190612696565b6040516020818303038152906040526040516020016113469291906127f7565b604051602081830303815290604052905095945050505050565b600061136d838330611648565b905092915050565b60003073ffffffffffffffffffffffffffffffffffffffff1682606001516040516113a09190612835565b6000604051808303816000865af19150503d80600081146113dd576040519150601f19603f3d011682016040523d82523d6000602084013e6113e2565b606091505b50509050806113f057600080fd5b7fe0922c744b0a82a8a9c2f22a04c84050e6995b7f85fa6e2f99a5304506507bf160405160405180910390a15050565b6000834710156114695747846040517fe4bbecac00000000000000000000000000000000000000000000000000000000815260040161146092919061284c565b60405180910390fd5b60008251036114a4576040517f4ca249dc00000000000000000000000000000000000000000000000000000000815260040160405180910390fd5b8282516020840186f59050600073ffffffffffffffffffffffffffffffffffffffff168173ffffffffffffffffffffffffffffffffffffffff1603611515576040517f741752c200000000000000000000000000000000000000000000000000000000815260040160405180910390fd5b9392505050565b3373ffffffffffffffffffffffffffffffffffffffff168173ffffffffffffffffffffffffffffffffffffffff160361158a576040517f08c379a0000000000000000000000000000000000000000000000000000000008152600401611581906128c1565b60405180910390fd5b80600160006101000a81548173ffffffffffffffffffffffffffffffffffffffff021916908373ffffffffffffffffffffffffffffffffffffffff1602179055508073ffffffffffffffffffffffffffffffffffffffff1660008054906101000a900473ffffffffffffffffffffffffffffffffffffffff1673ffffffffffffffffffffffffffffffffffffffff167fed8889f560326eb138920d842192f0eb3dd22b4f139c87a2c57538e05bae127860405160405180910390a350565b6000604051836040820152846020820152828152600b810160ff815360558120925050509392505050565b6040518060400160405280600073ffffffffffffffffffffffffffffffffffffffff168152602001600081525090565b6000604051905090565b600080fd5b600080fd5b60007fffffffff0000000000000000000000000000000000000000000000000000000082169050919050565b6116ec816116b7565b81146116f757600080fd5b50565b600081359050611709816116e3565b92915050565b600060208284031215611725576117246116ad565b5b6000611733848285016116fa565b91505092915050565b60008115159050919050565b6117518161173c565b82525050565b600060208201905061176c6000830184611748565b92915050565b6000819050919050565b61178581611772565b811461179057600080fd5b50565b6000813590506117a28161177c565b92915050565b6000602082840312156117be576117bd6116ad565b5b60006117cc84828501611793565b91505092915050565b600073ffffffffffffffffffffffffffffffffffffffff82169050919050565b6000611800826117d5565b9050919050565b611810816117f5565b82525050565b600060208201905061182b6000830184611807565b92915050565b61183a816117f5565b811461184557600080fd5b50565b60008135905061185781611831565b92915050565b60008060408385031215611874576118736116ad565b5b600061188285828601611848565b925050602061189385828601611848565b9150509250929050565b6000602082840312156118b3576118b26116ad565b5b60006118c184828501611848565b91505092915050565b600067ffffffffffffffff82169050919050565b6118e7816118ca565b81146118f257600080fd5b50565b600081359050611904816118de565b92915050565b60008060008060808587031215611924576119236116ad565b5b600061193287828801611793565b945050602061194387828801611848565b935050604061195487828801611848565b9250506060611965878288016118f5565b91505092959194509250565b600080600080600060a0868803121561198d5761198c6116ad565b5b600061199b88828901611848565b95505060206119ac88828901611793565b94505060406119bd88828901611848565b93505060606119ce88828901611793565b92505060806119df88828901611793565b9150509295509295909350565b600080fd5b600060a08284031215611a0757611a066119ec565b5b81905092915050565b600060208284031215611a2657611a256116ad565b5b600082013567ffffffffffffffff811115611a4457611a436116b2565b5b611a50848285016119f1565b91505092915050565b600080fd5b600080fd5b600080fd5b60008083601f840112611a7e57611a7d611a59565b5b8235905067ffffffffffffffff811115611a9b57611a9a611a5e565b5b602083019150836001820283011115611ab757611ab6611a63565b5b9250929050565b600080600080600080600060c0888a031215611add57611adc6116ad565b5b6000611aeb8a828b01611848565b9750506020611afc8a828b01611793565b9650506040611b0d8a828b01611848565b9550506060611b1e8a828b01611793565b9450506080611b2f8a828b01611793565b93505060a088013567ffffffffffffffff811115611b5057611b4f6116b2565b5b611b5c8a828b01611a68565b925092505092959891949750929550565b611b76816118ca565b82525050565b6000602082019050611b916000830184611b6d565b92915050565b60008060008060008060a08789031215611bb457611bb36116ad565b5b6000611bc289828a01611793565b9650506020611bd389828a01611848565b9550506040611be489828a01611793565b9450506060611bf589828a01611793565b935050608087013567ffffffffffffffff811115611c1657611c156116b2565b5b611c2289828a01611a68565b92509250509295509295509295565b611c3a81611772565b82525050565b6000602082019050611c556000830184611c31565b92915050565b600081519050611c6a8161177c565b92915050565b600060208284031215611c8657611c856116ad565b5b6000611c9484828501611c5b565b91505092915050565b6000604082019050611cb26000830185611807565b611cbf6020830184611c31565b9392505050565b611ccf8161173c565b8114611cda57600080fd5b50565b600081519050611cec81611cc6565b92915050565b600060208284031215611d0857611d076116ad565b5b6000611d1684828501611cdd565b91505092915050565b600081905092915050565b50565b6000611d3a600083611d1f565b9150611d4582611d2a565b600082019050919050565b6000611d5b82611d2d565b9150819050919050565b6000606082019050611d7a6000830186611807565b611d876020830185611807565b611d946040830184611c31565b949350505050565b600082825260208201905092915050565b7f4d7573742062652070726f706f736564206f776e657200000000000000000000600082015250565b6000611de3601683611d9c565b9150611dee82611dad565b602082019050919050565b60006020820190508181036000830152611e1281611dd6565b9050919050565b600080fd5b6000601f19601f8301169050919050565b7f4e487b7100000000000000000000000000000000000000000000000000000000600052604160045260246000fd5b611e6782611e1e565b810181811067ffffffffffffffff82111715611e8657611e85611e2f565b5b80604052505050565b6000611e996116a3565b9050611ea58282611e5e565b919050565b600080fd5b6000819050919050565b611ec281611eaf565b8114611ecd57600080fd5b50565b600081359050611edf81611eb9565b92915050565b600080fd5b600067ffffffffffffffff821115611f0557611f04611e2f565b5b611f0e82611e1e565b9050602081019050919050565b82818337600083830152505050565b6000611f3d611f3884611eea565b611e8f565b905082815260208101848484011115611f5957611f58611ee5565b5b611f64848285611f1b565b509392505050565b600082601f830112611f8157611f80611a59565b5b8135611f91848260208601611f2a565b91505092915050565b600067ffffffffffffffff821115611fb557611fb4611e2f565b5b602082029050602081019050919050565b600060408284031215611fdc57611fdb611e19565b5b611fe66040611e8f565b90506000611ff684828501611848565b600083015250602061200a84828501611793565b60208301525092915050565b600061202961202484611f9a565b611e8f565b9050808382526020820190506040840283018581111561204c5761204b611a63565b5b835b8181101561207557806120618882611fc6565b84526020840193505060408101905061204e565b5050509392505050565b600082601f83011261209457612093611a59565b5b81356120a4848260208601612016565b91505092915050565b600060a082840312156120c3576120c2611e19565b5b6120cd60a0611e8f565b905060006120dd84828501611ed0565b60008301525060206120f1848285016118f5565b602083015250604082013567ffffffffffffffff81111561211557612114611eaa565b5b61212184828501611f6c565b604083015250606082013567ffffffffffffffff81111561214557612144611eaa565b5b61215184828501611f6c565b606083015250608082013567ffffffffffffffff81111561217557612174611eaa565b5b6121818482850161207f565b60808301525092915050565b600061219936836120ad565b9050919050565b600081519050919050565b600082825260208201905092915050565b60005b838110156121da5780820151818401526020810190506121bf565b60008484015250505050565b60006121f1826121a0565b6121fb81856121ab565b935061220b8185602086016121bc565b61221481611e1e565b840191505092915050565b600060c0820190506122346000830189611807565b6122416020830188611c31565b61224e6040830187611807565b61225b6060830186611c31565b6122686080830185611c31565b81810360a083015261227a81846121e6565b9050979650505050505050565b600082825260208201905092915050565b60006122a3826121a0565b6122ad8185612287565b93506122bd8185602086016121bc565b6122c681611e1e565b840191505092915050565b600081519050919050565b600082825260208201905092915050565b6000819050602082019050919050565b612306816117f5565b82525050565b61231581611772565b82525050565b60408201600082015161233160008501826122fd565b506020820151612344602085018261230c565b50505050565b6000612356838361231b565b60408301905092915050565b6000602082019050919050565b600061237a826122d1565b61238481856122dc565b935061238f836122ed565b8060005b838110156123c05781516123a7888261234a565b97506123b283612362565b925050600181019050612393565b5085935050505092915050565b600060a08301600083015184820360008601526123ea8282612298565b915050602083015184820360208601526124048282612298565b9150506040830151848203604086015261241e828261236f565b915050606083015161243360608601826122fd565b506080830151848203608086015261244b8282612298565b9150508091505092915050565b600060408201905061246d6000830185611b6d565b818103602083015261247f81846123cd565b90509392505050565b60008151905061249781611eb9565b92915050565b6000602082840312156124b3576124b26116ad565b5b60006124c184828501612488565b91505092915050565b6124d381611eaf565b82525050565b60006020820190506124ee60008301846124ca565b92915050565b60006125008385611d1f565b935061250d838584611f1b565b82840190509392505050565b60006125268284866124f4565b91508190509392505050565b600060c0820190506125476000830189611807565b6125546020830188611807565b6125616040830187611c31565b61256e6060830186611807565b61257b6080830185611c31565b61258860a0830184611c31565b979650505050505050565b600061259f83856121ab565b93506125ac838584611f1b565b6125b583611e1e565b840190509392505050565b600060c0820190506125d5600083018a611807565b6125e26020830189611c31565b6125ef6040830188611807565b6125fc6060830187611c31565b6126096080830186611c31565b81810360a083015261261c818486612593565b905098975050505050505050565b7f4f6e6c792063616c6c61626c65206279206f776e657200000000000000000000600082015250565b6000612660601683611d9c565b915061266b8261262a565b602082019050919050565b6000602082019050818103600083015261268f81612653565b9050919050565b60006080820190506126ab6000830187611c31565b6126b86020830186611c31565b6126c56040830185611807565b6126d26060830184611c31565b95945050505050565b600081905092915050565b7f3d60ad80600a3d3981f3363d3d373d3d3d363d73000000000000000000000000600082015250565b600061271c6014836126db565b9150612727826126e6565b601482019050919050565b60008160601b9050919050565b600061274a82612732565b9050919050565b600061275c8261273f565b9050919050565b61277461276f826117f5565b612751565b82525050565b7f5af43d82803e903d91602b57fd5bf30000000000000000000000000000000000600082015250565b60006127b0600f836126db565b91506127bb8261277a565b600f82019050919050565b60006127d1826121a0565b6127db8185611d1f565b93506127eb8185602086016121bc565b80840191505092915050565b60006128028261270f565b915061280e8285612763565b60148201915061281d826127a3565b915061282982846127c6565b91508190509392505050565b600061284182846127c6565b915081905092915050565b60006040820190506128616000830185611c31565b61286e6020830184611c31565b9392505050565b7f43616e6e6f74207472616e7366657220746f2073656c66000000000000000000600082015250565b60006128ab601783611d9c565b91506128b682612875565b602082019050919050565b600060208201905081810360008301526128da8161289e565b905091905056fea2646970667358221220d8cdeaaba1f2d412720f93ac5946da1fe8ffc97ba73c45d82d2961c61fb4605e64736f6c63430008140033",
  "linkReferences": {},
  "deployedLinkReferences": {}
}