{
  "_format": "hh-sol-artifact-1",
  "contractName": "DataConsumer",
  "sourceName": "contracts/lib/DataConsumer.sol",
  "abi": [
    {
      "inputs": [
        {
          "internalType": "address",
          "name": "",
          "type": "address"
        }
      ],
      "name": "dataFeedAddress",
      "outputs": [
        {
          "internalType": "address",
          "name": "",
          "type": "address"
        }
      ],
      "stateMutability": "view",
      "type": "function"
    },
    {
      "inputs": [
        {
          "internalType": "address",
          "name": "_token",
          "type": "address"
        }
      ],
      "name": "getChainlinkDataFeedLatestAnswer",
      "outputs": [
        {
          "internalType": "int256",
          "name": "",
          "type": "int256"
        }
      ],
      "stateMutability": "view",
      "type": "function"
    }
  ],
  "bytecode": "0x608060405234801561001057600080fd5b506103f6806100206000396000f3fe608060405234801561001057600080fd5b50600436106100365760003560e01c8063a8320b1b1461003b578063e7078f921461006b575b600080fd5b61005560048036038101906100509190610216565b61009b565b6040516100629190610252565b60405180910390f35b61008560048036038101906100809190610216565b6100ce565b6040516100929190610286565b60405180910390f35b60006020528060005260406000206000915054906101000a900473ffffffffffffffffffffffffffffffffffffffff1681565b6000806000808473ffffffffffffffffffffffffffffffffffffffff1673ffffffffffffffffffffffffffffffffffffffff16815260200190815260200160002060009054906101000a900473ffffffffffffffffffffffffffffffffffffffff16905060008173ffffffffffffffffffffffffffffffffffffffff1663feaf968c6040518163ffffffff1660e01b815260040160a060405180830381865afa15801561017f573d6000803e3d6000fd5b505050506040513d601f19601f820116820180604052508101906101a39190610345565b5050509150508092505050919050565b600080fd5b600073ffffffffffffffffffffffffffffffffffffffff82169050919050565b60006101e3826101b8565b9050919050565b6101f3816101d8565b81146101fe57600080fd5b50565b600081359050610210816101ea565b92915050565b60006020828403121561022c5761022b6101b3565b5b600061023a84828501610201565b91505092915050565b61024c816101d8565b82525050565b60006020820190506102676000830184610243565b92915050565b6000819050919050565b6102808161026d565b82525050565b600060208201905061029b6000830184610277565b92915050565b600069ffffffffffffffffffff82169050919050565b6102c0816102a1565b81146102cb57600080fd5b50565b6000815190506102dd816102b7565b92915050565b6102ec8161026d565b81146102f757600080fd5b50565b600081519050610309816102e3565b92915050565b6000819050919050565b6103228161030f565b811461032d57600080fd5b50565b60008151905061033f81610319565b92915050565b600080600080600060a08688031215610361576103606101b3565b5b600061036f888289016102ce565b9550506020610380888289016102fa565b945050604061039188828901610330565b93505060606103a288828901610330565b92505060806103b3888289016102ce565b915050929550929590935056fea2646970667358221220603c3b34c62114eb3f8ba65278ab509ee7836fceb49faf716c3e15f0f9de725064736f6c63430008140033",
  "linkReferences": {},
  "deployedLinkReferences": {}
}